:020000040800F2
:10000000000002209D150008ED150008ED15000800
:10001000ED150008ED150008ED15000800000000C2
:10002000000000000000000000000000ED150008C6
:10003000ED15000800000000ED150008B9120008D9
:10004000ED150008ED150008ED150008ED15000888
:10005000ED150008ED150008ED150008ED15000878
:10006000ED150008ED150008ED150008ED15000868
:10007000ED150008ED150008ED150008ED15000858
:10008000ED150008ED150008ED150008ED15000848
:10009000ED150008ED150008ED150008ED15000838
:1000A000ED150008ED150008ED150008ED15000828
:1000B000ED150008ED150008ED150008ED15000818
:1000C000ED150008ED150008ED150008ED15000808
:1000D000ED150008ED150008ED150008ED150008F8
:1000E000ED150008ED150008ED150008ED150008E8
:1000F000ED150008ED150008ED150008ED150008D8
:10010000ED150008ED150008ED150008ED150008C7
:10011000ED150008ED150008ED150008ED150008B7
:10012000ED150008ED150008ED150008ED150008A7
:10013000ED1500080000000000000000ED150008AB
:10014000ED150008ED150008ED150008ED15000887
:10015000ED150008ED150008ED150008ED15000877
:10016000ED150008ED150008ED150008ED15000867
:10017000ED150008ED150008ED1500080000000061
:1001800000000000ED150008000000000000000065
:10019000ED1500080000000000000000ED1500084B
:1001A000000000000000000000000000ED15000845
:1001B000ED150008ED150008ED150008ED15000817
:0401C000ED15000831
:1001D00010B5054C237833B9044B13B10448AFF381
:1001E00000800123237010BDD80100200000000012
:1001F000783C000808B5034B1BB103490348AFF333
:10020000008008BD00000000DC010020783C0008F0
:1002100081F0004102E000BF83F0004330B54FEAB7
:1002200041044FEA430594EA050F08BF90EA020F24
:100230001FBF54EA000C55EA020C7FEA645C7FEAB7
:10024000655C00F0E2804FEA5454D4EB5555B8BFDA
:100250006D420CDD2C4480EA020281EA030382EA4B
:10026000000083EA010180EA020281EA0303362DDD
:1002700088BF30BD11F0004F4FEA01314FF4801CB0
:100280004CEA113102D0404261EB410113F0004FC2
:100290004FEA03334CEA133302D0524263EB430379
:1002A00094EA050F00F0A780A4F10104D5F1200E17
:1002B0000DDB02FA0EFC22FA05F2801841F1000172
:1002C00003FA0EF2801843FA05F359410EE0A5F146
:1002D00020050EF1200E012A03FA0EFC28BF4CF077
:1002E000020C43FA05F3C01851EBE37101F000452D
:1002F00007D54FF0000EDCF1000C7EEB00006EEB3A
:100300000101B1F5801F1BD3B1F5001F0CD34908C3
:100310005FEA30004FEA3C0C04F101044FEA44521A
:1003200012F5800F80F09A80BCF1004F08BF5FEAA1
:10033000500C50F1000041EB045141EA050130BD81
:100340005FEA4C0C404141EB010111F4801FA4F124
:100350000104E9D191F0000F04BF01460020B1FA79
:1003600081F308BF2033A3F10B03B3F120020CDAB1
:100370000C3208DD02F1140CC2F10C0201FA0CF08F
:1003800021FA02F10CE002F11402D8BFC2F1200CF4
:1003900001FA02F120FA0CFCDCBF41EA0C019040AA
:1003A000E41AA2BF01EB0451294330BD6FEA0404F3
:1003B0001F3C1CDA0C340EDC04F11404C4F12002DE
:1003C00020FA04F001FA02F340EA030021FA04F3F0
:1003D00045EA030130BDC4F10C04C4F1200220FA47
:1003E00002F001FA04F340EA0300294630BD21FA85
:1003F00004F0294630BD94F0000F83F4801306BF4B
:1004000081F480110134013D4EE77FEA645C18BF3E
:100410007FEA655C29D094EA050F08BF90EA020FD5
:1004200005D054EA000C04BF1946104630BD91EACD
:10043000030F1EBF0021002030BD5FEA545C05D1D0
:100440004000494128BF41F0004130BD14F580040F
:100450003CBF01F5801130BD01F0004545F0FE4183
:1004600041F470014FF0000030BD7FEA645C1ABFB8
:10047000194610467FEA655C1CBF0B46024650EAEF
:10048000013406BF52EA033591EA030F41F400211B
:1004900030BD00BF90F0000F04BF0021704730B5A1
:1004A0004FF4806404F132044FF000054FF0000176
:1004B00050E700BF90F0000F04BF0021704730B537
:1004C0004FF4806404F1320410F0004548BF40420C
:1004D0004FF000013EE700BF42004FEAE2014FEA61
:1004E00031014FEA02701FBF12F07F4393F07F4F3C
:1004F00081F06051704732F07F4208BF704793F03F
:100500007F4F04BF41F40021704730B54FF4607451
:1005100001F0004521F000411CE700BF50EA010254
:1005200008BF704730B54FF000050AE050EA0102FD
:1005300008BF704730B511F0004502D5404261EB6D
:1005400041014FF4806404F132045FEA915C3FF4AE
:10055000D8AE4FF003025FEADC0C18BF03325FEA4B
:10056000DC0C18BF033202EBDC02C2F1200300FAFC
:1005700003FC20FA02F001FA03FE40EA0E0021FA21
:1005800002F11444BDE600BF4FEA4102B2F1E0437C
:1005900024BFB3F5001CDCF1FE5C0DD901F0004C6A
:1005A0004FEAC0024CEA5070B2F1004F40EB8300BA
:1005B00008BF20F00100704711F0804F21D113F1E6
:1005C0003872BCBF01F00040704741F480114FEA1F
:1005D0005252C2F11802C2F1200C10FA0CF320FAA8
:1005E00002F018BF40F001004FEAC1234FEAD323C5
:1005F00003FA0CFC40EA0C0023FA02F34FEA43032F
:10060000CCE77FEA625307D150EA01331EBF4FF0B7
:10061000FE4040F44000704701F0004040F0FE40D2
:1006200040F40000704700BF4FF0FF0C1CEAD052AE
:100630001EBF1CEAD15392EA0C0F93EA0C0F6FD045
:100640001A4480EA010C400218BF5FEA41211ED023
:100650004FF0006343EA501043EA5111A0FB01310F
:100660000CF00040B1F5000F3EBF490041EAD371E4
:100670005B0040EA010062F17F02FD2A1DD8B3F160
:10068000004F40EBC25008BF20F00100704790F0CF
:10069000000F0CF0004C08BF49024CEA502040EA21
:1006A00051207F3AC2BFD2F1FF0340EAC2507047E7
:1006B00040F400004FF00003013A5DDC12F1190F25
:1006C000DCBF00F000407047C2F10002410021FA97
:1006D00002F1C2F1200200FA02FC5FEA310040F1AF
:1006E000000053EA4C0308BF20EADC70704792F028
:1006F000000F00F0004C02BF400010F4000F013A60
:10070000F9D040EA0C0093F0000F01F0004C02BF5A
:10071000490011F4000F013BF9D041EA0C018FE7C9
:100720000CEAD15392EA0C0F18BF93EA0C0F0AD0CF
:1007300030F0004C18BF31F0004CD8D180EA0100F5
:1007400000F00040704790F0000F17BF90F0004F8E
:10075000084691F0000F91F0004F14D092EA0C0F70
:1007600001D142020FD193EA0C0F03D14B0218BF03
:10077000084608D180EA010000F0004040F0FE4049
:1007800040F40000704740F0FE4040F440007047E5
:100790004FF0FF0C1CEAD0521EBF1CEAD15392EA64
:1007A0000C0F93EA0C0F69D0A2EB030280EA010C54
:1007B00049024FEA402037D04FF0805343EA1111ED
:1007C00043EA10130CF000408B4238BF5B0042F14B
:1007D0007D024FF4000C8B4224BF5B1A40EA0C00F0
:1007E000B3EB510F24BFA3EB510340EA5C00B3EB22
:1007F000910F24BFA3EB910340EA9C00B3EBD10F10
:1008000024BFA3EBD10340EADC001B0118BF5FEA61
:100810001C1CE0D1FD2A3FF650AF8B4240EBC2508A
:1008200008BF20F0010070470CF0004C4CEA50204B
:100830007F32C2BFD2F1FF0340EAC250704740F49A
:1008400000004FF00003013A37E792F0000F00F08C
:10085000004C02BF400010F4000F013AF9D040EA0A
:100860000C0093F0000F01F0004C02BF490011F49E
:10087000000F013BF9D041EA0C0195E70CEAD15396
:1008800092EA0C0F08D142027FF47DAF93EA0C0F7D
:100890007FF470AF084676E793EA0C0F04D14B0261
:1008A0003FF44CAF08466EE730F0004C18BF31F013
:1008B000004CCAD130F000427FF45CAF31F000430D
:1008C0007FF43CAF5FE700BF4FEA4002B2F1FE4F5A
:1008D0000FD34FF09E03B3EB12620DD94FEA002302
:1008E00043F0004310F0004F23FA02F018BF4042DB
:1008F00070474FF00000704712F1610F01D14202C2
:1009000005D110F0004008BF6FF0004070474FF075
:1009100000007047034613F8012B002AFBD1181A78
:1009200001387047000000000000000000000000D7
:1009300001F0FF01102A2BDB10F0070F08D010F890
:10094000013B013A8B422DD010F0070F42B3F6D194
:10095000F0B441EA012141EA014122F007047FF0AD
:1009600000070023F0E80256083C85EA010586EA04
:10097000010685FA47F5A3FA87F586FA47F6A5FA40
:1009800087F68EB9EED1F0BC01F0FF0102F007024C
:1009900032B110F8013B013A83EA010313B1F8D1F7
:1009A0000020704701387047002D06BF35460338D8
:1009B000073815F0010F07D1013015F4807F02BF11
:1009C000013015F4C03F0130F0BC0138704700BF62
:1009D00070B54FF0FF0C4CF4E06C1CEA11541DBFD5
:1009E0001CEA135594EA0C0F95EA0C0F00F0DEF8A0
:1009F0002C4481EA030621EA4C5123EA4C5350EA85
:100A0000013518BF52EA033541F4801143F48013D5
:100A100038D0A0FB02CE4FF00005E1FB02E506F066
:100A20000042E0FB03E54FF00006E1FB03569CF0BB
:100A3000000F18BF4EF0010EA4F1FF04B6F5007FC1
:100A400064F5407404D25FEA4E0E6D4146EB060633
:100A500042EAC62141EA55514FEAC52040EA5E50BC
:100A60004FEACE2EB4F1FD0C88BFBCF5E06F1ED866
:100A7000BEF1004F08BF5FEA500E50F1000041EB9D
:100A8000045170BD06F0004646EA010140EA02004A
:100A900081EA0301B4EB5C04C2BFD4EB0C0541EA6C
:100AA000045170BD41F480114FF0000E013C00F381
:100AB000AB8014F1360FDEBF002001F0004170BDA5
:100AC000C4F10004203C35DA0C341BDC04F11404BE
:100AD000C4F1200500FA05F320FA04F001FA05F24A
:100AE00040EA020001F0004221F0004110EBD37017
:100AF00021FA04F642EB06015EEA430E08BF20EA43
:100B0000D37070BDC4F10C04C4F1200500FA04F3E5
:100B100020FA05F001FA04F240EA020001F0004177
:100B200010EBD37041F100015EEA430E08BF20EAEA
:100B3000D37070BDC4F1200500FA05F24EEA020E32
:100B400020FA04F301FA05F243EA020321FA04F061
:100B500001F0004121FA04F220EA020000EBD37018
:100B60005EEA430E08BF20EAD37070BD94F0000F18
:100B70000FD101F00046400041EB010111F4801F4C
:100B800008BF013CF7D041EA060195F0000F18BFFD
:100B9000704703F00046520043EB030313F4801F39
:100BA00008BF013DF7D043EA0603704794EA0C0FF3
:100BB0000CEA135518BF95EA0C0F0CD050EA410609
:100BC00018BF52EA4306D1D181EA030101F0004186
:100BD0004FF0000070BD50EA410606BF10461946AE
:100BE00052EA430619D094EA0C0F02D150EA0136BA
:100BF00013D195EA0C0F05D152EA03361CBF1046FB
:100C000019460AD181EA030101F0004141F0FE4199
:100C100041F470014FF0000070BD41F0FE4141F41D
:100C2000780170BD70B54FF0FF0C4CF4E06C1CEA1D
:100C300011541DBF1CEA135594EA0C0F95EA0C0FD2
:100C400000F0A7F8A4EB050481EA030E52EA03358D
:100C50004FEA013100F088804FEA03334FF08055AE
:100C600045EA131343EA12634FEA022245EA1115DB
:100C700045EA10654FEA00260EF000419D4208BF8C
:100C8000964244F1FD0404F5407402D25B084FEA39
:100C90003202B61A65EB03055B084FEA32024FF4E5
:100CA00080104FF4002CB6EB020E75EB030E22BF42
:100CB000B61A754640EA0C005B084FEA3202B6EB02
:100CC000020E75EB030E22BFB61A754640EA5C00B1
:100CD0005B084FEA3202B6EB020E75EB030E22BF41
:100CE000B61A754640EA9C005B084FEA3202B6EB42
:100CF000020E75EB030E22BFB61A754640EADC0001
:100D000055EA060E18D04FEA051545EA16754FEA62
:100D100006164FEAC30343EA52734FEAC2025FEA80
:100D20001C1CC0D111F4801F0BD141EA00014FF00F
:100D300000004FF0004CB6E711F4801F04BF0143E0
:100D40000020B4F1FD0C88BFBCF5E06F3FF6AFAEFC
:100D5000B5EB030C04BFB6EB020C5FEA500C50F18C
:100D6000000041EB045170BD0EF0004E4EEA11310F
:100D700014EB5C04C2BFD4EB0C0541EA045170BD16
:100D800041F480114FF0000E013C90E645EA060E5A
:100D90008DE60CEA135594EA0C0F08BF95EA0C0F88
:100DA0003FF43BAF94EA0C0F0AD150EA01347FF4D0
:100DB00034AF95EA0C0F7FF425AF104619462CE7A7
:100DC00095EA0C0F06D152EA03353FF4FDAE10460A
:100DD000194622E750EA410618BF52EA43067FF45B
:100DE000C5AE50EA41047FF40DAF52EA43057FF4EB
:100DF000EBAE12E74FF0FF3C06E000BF4FF0010CF6
:100E000002E000BF4FF0010C4DF804CD4FEA410C59
:100E10007FEA6C5C4FEA430C18BF7FEA6C5C1BD026
:100E200001B050EA410C0CBF52EA430C91EA030FA7
:100E300002BF90EA020F0020704710F1000F91EA04
:100E4000030F58BF994208BF90422CBFD8176FEAD2
:100E5000E37040F0010070474FEA410C7FEA6C5CA0
:100E600002D150EA013C07D14FEA430C7FEA6C5CA7
:100E7000D6D152EA033CD3D05DF8040B704700BFD3
:100E80008446104662468C461946634600E000BF21
:100E900001B5FFF7B7FF002848BF10F1000F01BDF3
:100EA0004DF808EDFFF7F4FF0CBF012000205DF8BE
:100EB00008FB00BF4DF808EDFFF7EAFF34BF012043
:100EC00000205DF808FB00BF4DF808EDFFF7E0FFDC
:100ED00094BF012000205DF808FB00BF4DF808ED2D
:100EE000FFF7CEFF94BF012000205DF808FB00BF94
:100EF0004DF808EDFFF7C4FF34BF012000205DF876
:100F000008FB00BF4FEA410C7FEA6C5C02D150EA5B
:100F1000013C0AD14FEA430C7FEA6C5C02D152EAF1
:100F2000033C02D14FF0000070474FF001007047C2
:100F30004FEA410212F5001215D211D56FF4787301
:100F4000B3EB625212D94FEAC12343F0004343EAA4
:100F5000505311F0004F23FA02F018BF404270477F
:100F60004FF00000704750EA013005D111F0004009
:100F700008BF6FF0004070474FF00000704700BF9F
:100F800080B483B000AF03463960FB7197F9073036
:100F9000002B0ADB3B68DAB20C4997F907301201E3
:100FA000D2B20B4483F800230AE03B68DAB2084966
:100FB000FB7903F00F03043B1201D2B20B441A7603
:100FC00000BF0C37BD4680BC704700BF00E100E0A9
:100FD00000ED00E080B582B000AF78607B68013B37
:100FE000B3F1807F01D301230FE00A4A7B68013B04
:100FF00053600F214FF0FF30FFF7C2FF054B002277
:101000009A60044B07221A60002318460837BD4631
:1010100080BD00BF10E000E080B485B000AF0346A3
:101020000A46FB8013467B71FB881B0A9BB203F5C3
:10103000801380339B02FB60FB88DBB2BB60134BE9
:101040001A6BFB881B0A9BB2194601238B400F4980
:1010500013430B63FB681A68BB685B00032101FA4A
:1010600003F3DB431A40FB681A60FB681A687B795C
:1010700003F00301BB685B0001FA03F31A43FB684A
:101080001A6000BF1437BD4680BC7047003802406C
:1010900080B485B000AF03460A46FB8013467B71DF
:1010A000FB881B0A9BB203F5801380339B02FB6015
:1010B000FB88DBB2BB60BB68DA10FB68083253F810
:1010C0002210BB6803F007039B000F2202FA03F310
:1010D000DB43BA68D2101940FB68083243F822108B
:1010E000BB68DA10FB68083253F822107A79BB68C3
:1010F00003F007039B0002FA03F3BA68D210194306
:10110000FB68083243F8221000BF1437BD4680BC8C
:10111000704780B485B000AF03460A46FB80134693
:101120007B71FB881B0A9BB203F5801380339B0203
:10113000FB60FB88DBB201229A407B79002B01D057
:10114000002300E010239A40FB689A6100BF143727
:10115000BD4680BC7047000080B584B000AF7860A9
:1011600039600723FB720023FB810023BB817B686E
:10117000304A934205D1304B5B6C2F4A43F0100349
:1011800053647B682D4A934205D12B4B1B6C2A4A32
:1011900043F4003313647B68294A934205D1264BFC
:1011A0001B6C254A43F4802313647B68214A9342D5
:1011B00003D10923BB810A23FB817B681F4A934229
:1011C00003D10223BB810323FB817B681C4A93422A
:1011D00005D14FF44273BB8140F20933FB81BB89D7
:1011E00002211846FFF718FFFA7ABB891146184604
:1011F000FFF74EFFFB8902211846FFF70DFFFA7A31
:10120000FB8911461846FFF743FF7B680022DA602E
:101210000C4A3B68B2FBF3F27B689A607B68DB6840
:1012200043F4005343F00C037A68D36000BF1037D7
:10123000BD4680BD0010014000380240004400401F
:10124000004800400024F40080B485B000AFF8608E
:10125000B9607A607A68BB681A44FB681B689A4276
:1012600002D2FB6800221A60FB681B68002B04D1C5
:101270007A68BB681A44FB681A60FB681B687A6866
:101280009A4201D2002311E0FB681B687A68D31AE6
:10129000BA689A4203D27A68BB68134403E0FB68D9
:1012A0001A68BB681344FA681360012318461437A0
:1012B000BD4680BC7047000080B400AF044B1B6883
:1012C0000133034A136000BFBD4680BC704700BFB6
:1012D0000000002080B500AF054B5B6C044A43F46E
:1012E000804353644FF47A50FFF774FE00BF80BD13
:1012F0000038024000000000B0B586B000AF4FF0EB
:1013000000037B614FF480737B8240F201133B82C8
:101310007B8A01211846FFF77FFE3B8A0121184690
:10132000FFF77AFE4FF416512F48FFF715FF002301
:10133000BB6064237B603B8A01211846FFF7E9FE0E
:101340002A4B00221A607968284B1A6807F10803B3
:101350001846FFF779FF0346002BF4D0244B1B7887
:10136000DAB27B8A11461846FFF7D3FE204B1B7872
:10137000DBB2002B14BF01230023DBB283F0010397
:10138000DBB203F00103DAB2194B1A70194978691C
:10139000FFF74AF903461846FFF796FA0346FB6043
:1013A000134B1B78DBB21D467869FFF795F80346AF
:1013B0000C461A46234629460F4800F093FD7869EB
:1013C000FFF78AF806A3D3E90023FEF727FF0346B9
:1013D0000C4618462146FFF7D7F803467B61B2E773
:1013E0009A9999999999C93F0044004000000020BA
:1013F000040000200000C842903C000880B483B084
:1014000000AF786000E000BF7B685A1E7A60002B56
:10141000F9D100BF0C37BD4680BC704780B582B0A3
:1014200000AF78600B46FB70FA787B685A6002E088
:101430000120FFF7E3FF7B681B6803F08003002BAC
:10144000F6D000BF0837BD4680BD80B584B000AF80
:10145000F860B9607A6007E0BB685A1CBA601B7814
:101460001946F868FFF7DAFF7B685A1E7A60002B8E
:10147000F2D100BF1037BD4680BD80B483B000AF4D
:10148000786039607B68002B02DA4FF0FF3304E0AC
:101490003B684FF400525A60002318460C37BD4693
:1014A00080BC704780B487B000AF7860124A134B9D
:1014B000D31A7B617B693B61114B1B68002B02D106
:1014C0000F4B104A1A600E4B1A687B6813443A6936
:1014D0009A4202D24FF0FF3309E0094B1B68FB60D0
:1014E000074B1A687B681344054A1360FB6818466B
:1014F0001C37BD4680BC704700000220000400007D
:10150000F40100200802002080B483B000AF7860AE
:101510004FF0FF3318460C37BD4680BC704780B48F
:1015200083B000AF7860012318460C37BD4680BCFD
:10153000704780B485B000AFF860B9607A6000236E
:1015400018461437BD4680BC7047000080B584B093
:1015500000AFF860B9607A60FB68012B02D0FB68CD
:10156000022B05D17B681A46B9680448FFF76DFF66
:101570004FF0FF3318461037BD4680BD0044004091
:1015800080B485B000AFF860B9607A604FF0FF3387
:1015900018461437BD4680BC70470000DFF834D0D1
:1015A0000D480E490E4A002302E0D458C4500433BB
:1015B000C4188C42F9D30B4A0B4C002301E0136092
:1015C0000432A242FBD3FFF785FE00F011F8FFF7CB
:1015D00093FE70470000022000000020D801002088
:1015E000703F0008D801002004020020FEE7000040
:1015F00070B50D4E0D4CA41BA4100025A54209D1B9
:101600000B4E0C4C02F038FBA41BA4100025A54285
:1016100005D170BD56F8253098470135EEE756F8EC
:10162000253098470135F2E7683F0008683F000819
:10163000683F00086C3F000802440346934200D113
:10164000704703F8011BF9E72DE9F04788B0002B3C
:10165000149F109DDDE9121A1E4627F02007BBBF1C
:1016600003F100431E4600232D23462F14460B7022
:1016700004D0452F00D10135022300E0032307AA3F
:10168000049206AACDE902A2CDE9003522463346EE
:1016900000F0CEFC472F804602D1119BDB0726D5F8
:1016A000462F08EB050911D198F80030302B0AD1EC
:1016B0000022002320463146FFF7F2FB18B9C5F19E
:1016C0000105CAF80050DAF80030994400220023DE
:1016D00020463146FFF7E4FB38B93022079B4B45E3
:1016E00005D2591C07911A70F8E7CDF81C90079B9A
:1016F000159AA3EB08034046136008B0BDE8F087D5
:10170000F7B500290446BABF49422D232B230929E6
:1017100004F8022B437020DD0DF107031F460A2653
:1017200091FBF6F506FB15113031092D03F8011C6C
:1017300003F1FF32294609DC3031023B02F8011C7B
:10174000BB42224604D3101A03B0F0BD1346E7E7AC
:1017500013F8012B04F8012BF2E7302319448370AE
:10176000021DC170EFE700002DE9F04F91B00C466B
:101770001A9F93461E46054601F0DEFA0368099358
:101780001846FFF7C7F800230E933B680A9007330B
:1017900023F0070303F1080294F81880D4F800A09E
:1017A0003A60D3E90023C4E91223D4E9127929F07D
:1017B00000430B934FF0FF32A64B0B993846FFF7CF
:1017C000A1FB68BB4FF0FF32A24B0B993846FFF7E5
:1017D0007BFB28BB0022002338464946FFF76AFB03
:1017E00010B12D2384F843309B4F9C4BB8F1470F29
:1017F00098BF1F46032323612AF0040323604FF0A0
:10180000000900965B460FAA2146284600F0E2F93F
:10181000013040F090804FF0FF3011B0BDE8F08F04
:101820003A464B4638464946FFF76CFB10B18C4FA1
:101830008C4BDBE76368591C4AF480620EA90DA843
:1018400040D1062363600DF13303CDE901234FF04E
:10185000000C63682260CDE9030800933A464B46CA
:10186000CDE9051C2846FFF7EFFE08F0DF03472B04
:10187000074609D10D9BD81C02DB6268934247DD05
:10188000A8F102085FFA88F8B8F1650F0D9924D81D
:101890000139424604F150000D91FFF731FF0E9AD5
:1018A0001318012A8146236102DC2268D10701D581
:1018B000013323619DF83330002BA2D02D2384F80F
:1018C00043309EE7B8F1670F00F06E81B8F1470F23
:1018D000B9D1002BB7D10123B4E7B8F1660F19D104
:1018E000002963680CDD216113B92268D20702D593
:1018F00001330B4423610D9BA3654FF00009D9E729
:1019000013B92268D00701D50233F3E70123F1E7C9
:101910004FF06708DDE90D32934205DB2268236151
:10192000D107E8D50133E5E7002BD4BFC3F10203AB
:1019300001231344DEE723685A0507D423693A4696
:1019400059462846B047013029D164E7B8F1650F00
:1019500040F2D78000220023D4E91201FFF7A0FA59
:1019600088B30123404A59462846B04701303FF426
:1019700052AFDDE90D239A4202DB2368D8070ED56A
:10198000DDE9092359462846B04701303FF443AF0B
:10199000002704F11A080E9B013BBB4209DC2368B7
:1019A0009F0700F1FD80E0680F9B9842B8BF184682
:1019B00033E70123424659462846B04701303FF4F9
:1019C0002AAF0137E7E70D9B002B2BDC0123264ACA
:1019D00059462846B04701303FF41DAF0D9B23B94F
:1019E0000E9B13B92368D907D9D5DDE909235946D8
:1019F0002846B04701303FF40EAF4FF0000804F125
:101A00001A090D9B5B42434501DC0E9B97E70123BE
:101A10004A4659462846B04701303FF4FCAE08F12B
:101A20000108EEE70E9AA36D9A42A8BF1A46002A53
:101A3000904607DD134659463A462846B0470130DE
:101A40003FF4E9AE04F11A034FF0000A28EAE878FF
:101A50000B9315E0FFFFEF7FAC3C0008A83C0008AB
:101A6000B43C0008B03C0008B83C000801230B9AC5
:101A700059462846B04701303FF4CDAE0AF1010A7D
:101A8000D4F85890A9EB08035345EFDCDDE90D23AA
:101A90009A424F4414DB2368DA0711D40E9B0D9948
:101AA000A3EB0902A3EB01099145A8BF9146B9F147
:101AB000000F0DDC002729EAE97904F11A0818E083
:101AC000DDE9092359462846B0470130E6D1A2E6B0
:101AD0004B463A4659462846B0470130EAD19AE685
:101AE0000123424659462846B04701303FF493AEA1
:101AF0000137DDE90D239B1AA3EB0903BB42EFDCA1
:101B00004DE70E9A012A01DCDB0738D501233A465E
:101B100059462846B04701303FF47DAEDDE9092340
:101B200059462846B047013007F101073FF473AE2C
:101B30000E9B002203F1FF38D4E912010023FFF7C6
:101B4000AFF9C0B943463A4659462846B047013036
:101B50000DD160E60123424659462846B047013080
:101B60003FF459AE01370E9B013BBB42F2DC4B46C2
:101B700004F15002E4E6002704F11A08F3E7012318
:101B8000E1E70123424659462846B04701303FF479
:101B900042AE0137E3680F9A9B1ABB42F1DC02E7C1
:101BA000002704F11908F5E7002B3FF494AE4FF03D
:101BB000000CCDE9051C0DF133012260CDE90308CD
:101BC000CDE9012100933A464B462846FFF73CFDFC
:101BD00007464FE62DE9F04791461F468A680B6994
:101BE000DDF820809342B8BF1346C9F8003091F861
:101BF000432006460C4612B10133C9F80030236871
:101C0000990642BFD9F800300233C9F80030256880
:101C100015F0060507D104F1190AE368D9F8002088
:101C20009B1AAB4228DC94F843302268003318BF7B
:101C3000012392062DD404F1430239463046C047B1
:101C4000013020D02368E568D9F8002003F00603AE
:101C5000042B08BFAD1AA36822690CBF25EAE575FD
:101C600000259342C4BF9B1AED184FF000091A34A7
:101C70004D451AD1002008E001235246394630462E
:101C8000C047013003D14FF0FF30BDE8F087013588
:101C9000C3E7E1185A1C302081F84300224494F82D
:101CA000451082F843100233C5E701232246394626
:101CB0003046C0470130E6D009F10109D8E70000FD
:101CC0002DE9F04301F1430C0C46097E85B06E29E5
:101CD0001746064698460C9A00F0B38022D863292E
:101CE00036D00AD8002900F0B980582900F0838046
:101CF00004F1420584F8421032E0642901D06929D8
:101D0000F6D120681368050603F104012AD51B6883
:101D10001160002B03DA2D225B4284F843206F48C8
:101D20000A2239E0732900F09D8008D86F2920D05D
:101D30007029DDD1236843F02003236003E0752977
:101D400017D07829D4D1782384F84530644855E0F9
:101D50001368191D1B68116004F1420584F84230B4
:101D600001238CE01B68116010F0400F18BF1BB2FC
:101D7000CFE713682568181D1060280601D51B6879
:101D800002E06806FBD51B8854486F2914BF0A225D
:101D90000822002184F843106568A560002DC0F278
:101DA0009580216821F004012160002B3DD1002D98
:101DB00040F08E806546082A0BD12368DB0708D5E2
:101DC000236962689A42DEBF302305F8013C05F1C1
:101DD000FF35ACEB05032361CDF800803B4603AA39
:101DE00021463046FFF7F6FE01304DD14FF0FF306F
:101DF00005B0BDE8F083394884F8451013682168C0
:101E00001D1D1B6815600A060BD5CA0744BF41F0AB
:101E1000200121601BB9226822F0200222601022DA
:101E2000B7E74D0648BF9BB2EFE76546B3FBF2F15B
:101E300002FB1133C35C05F8013D0B460029F5D1C7
:101E4000B9E7136825686169181D106028061B68CA
:101E500001D5196002E06A06FBD5198000232361D1
:101E60006546B9E71368191D11601D686268002195
:101E70002846FEF75DFD08B1401B60606368236182
:101E8000002384F84330A7E723692A4639463046C1
:101E9000C0470130AAD023689B0713D4E068039B96
:101EA0009842B8BF1846A3E701234A463946304650
:101EB000C04701309AD00135E368039A9B1AAB42C0
:101EC000F2DCEBE7002504F11909F5E7002BACD1B2
:101ED000037884F8423004F142056CE7BA3C00080C
:101EE000CB3C00080FB40A4B13B51C6824B1A3699E
:101EF00013B9204600F096FE05AB049AA168019341
:101F0000204601F0F3FA02B0BDE8104004B070477B
:101F1000080000202DE9F74F03690C69A3428046B1
:101F2000C0F28280013C01F114074FEA840C00F1F9
:101F3000140657F8245056F8240006EB0C0301351C
:101F400007EB0C090193B0FBF5F595B34FF0000AD0
:101F50003846B646D34650F8042B93B205FB03A38C
:101F60004FEA134A9BB2ABEB0303120CDEF800B04E
:101F700005FB02A213FA8BF34FEA124A1FFA82FB07
:101F8000DEF80020CBEB124202EB23429BB243EA85
:101F9000024381454FEA224B4EF8043BDBD256F810
:101FA0000C3033B9019B043B9E421A4630D3C8F82B
:101FB0001040404601F0F6F8002825DB0135304698
:101FC0004FF0000C57F8042BD0F800E093B2ACEBC4
:101FD0000303120C13FA8EF3C2EB1E4202EB2342F0
:101FE0009BB243EA0243B9454FEA224C40F8043B16
:101FF000E8D256F8242006EB84032AB9043B9E421B
:102000001A460BD3C8F81040284603B0BDE8F08F3D
:102010001268043B002ACAD1013CC5E71268043BA0
:10202000002AEFD1013CEAE70020EEE700000000C3
:102030002DE9F04F456A95B016461F460446DDF877
:102040008480CDE902673DB9102000F083FE606214
:10205000C0E901550560C560636A196851B15A68E5
:102060004A60012393408B60204600F0BAFE636A09
:1020700000221A603B1EBBBF23F0004303930023E2
:102080000122ACBFC8F80030C8F80020AE4BDDF824
:102090000C8033EA08031BD1209A42F20F731360BD
:1020A000029B23B9C8F31300002800F04B85229B44
:1020B00053B9A64B21E0A64B06930833229A13602E
:1020C000069815B0BDE8F08FA04B06930333F5E7F3
:1020D000DDE902670022002330463946FEF7E0FEC4
:1020E000824660B1209A01231360229B002B00F0EE
:1020F0002685984B229A1360013B0693E0E712ABCA
:10210000019313AB009332463B46204601F0C1F8E1
:10211000C8F30A558346002D7CD0C7F3130343F060
:102120007F59B04649F44019A5F2FF35CDF840A0DB
:102130000022894B40464946FEF76EF87CA3D3E95E
:102140000023FEF745FC7CA3D3E90023FEF766F8E5
:10215000064628460F46FEF7ADF979A3D3E90023DA
:10216000FEF736FC02460B4630463946FEF756F877
:1021700006460F46FEF7DCFE00228246002330466C
:102180003946FEF797FE48B15046FEF793F93246BE
:102190003B46FEF785FE08B90AF1FF3ABAF1160F81
:1021A00059D86E4901EBCA01DDE90223D1E90001EA
:1021B000FEF79EFE002850D00AF1FF3A00230D934F
:1021C000129B5D1B6B1E079343BF0023C5F10109E2
:1021D00007934FF00009BAF1000F40DB079BCDF8E1
:1021E00030A053440793002308931E9B092B00F251
:1021F0008E80052BC4BF043B1E931E9BA3F10203DC
:10220000CCBF00250125032B00F28D80DFE803F011
:102210007B7D2F6FDDE912531D4405F232402028EB
:1022200013DDC0F14000029B08FA00F805F21240ED
:1022300023FA00F048EA0000FEF72CF9012380465B
:10224000A1F1F879013D109372E7029BC0F12000E3
:1022500003FA00F0F0E70123B1E70D90B0E7CAF10F
:10226000000308930023A9EB0A090C93BDE701239F
:1022700009931F9B002B75DD04939846666A002224
:102280007260042202F11400984271686FD92046EE
:1022900000F073FD636A30601B680693B8F10E0F9F
:1022A00000F2EE80002D00F0EB80DDE90223BAF1B0
:1022B000000FCDE90E2378DD284A0AF00F0302EB68
:1022C000C303D3E900234FEA2A16F006CDE90A2317
:1022D00069D5234BDDE90E01D3E90823FEF7A2FC03
:1022E000CDE9020106F00F0603251D4F50E0012342
:1022F00009931F9B534403F1010804934346012BA8
:10230000B8BF0123BAE70023B2E70023F0E70125B5
:1023100000231E9309954FF0FF3304939846002243
:1023200012231F92AAE701230993F4E7AFF3008079
:1023300061436F63A787D23FB3C8608B288AC63FCB
:10234000FB799F501344D33F0000F07FE53C000829
:10235000DC3C0008B93C00080000F83F783D00086C
:10236000503D00080123049398461A46D9E70131ED
:102370007160520086E7F10708D5DDE90A01D7E967
:102380000023FEF725FBCDE90A0101357610083759
:10239000002EF0D1DDE90A23DDE90201FEF742FC5F
:1023A000CDE902011BE002259FE700F0A480CAF1FD
:1023B0000006A24BA24F06F00F0203EBC203D3E9C3
:1023C0000023DDE90E01FEF703FBCDE90201361122
:1023D00000230225002E40F08380002BE0D10D9BCE
:1023E000002B00F08A80DDE90223CDE90A23DDE934
:1023F0000A010022934BFEF75DFD00287DD0B8F165
:10240000000F7AD0049B002B36DD00228E4BDDE9D5
:102410000A01FEF7DDFACDE90201049E0AF1FF3759
:1024200001352846FEF746F8DDE90223FEF7D0FA2B
:102430000022864BFDF7F2FEA1F15075CDE90A01AD
:102440000B95002E5CD10022814BDDE90201FDF7E6
:10245000E3FE0A9A2B46CDE90201FEF749FD00286A
:1024600040F084820A9A05F10043DDE90201FEF79B
:1024700021FD002840F07882DDE90E23CDE902231A
:10248000139B002BC0F24E81BAF10E0F00F34A816C
:102490006A4B03EBCA03D3E90023CDE904231F9B56
:1024A000002B80F2D980B8F1000F00F3D58040F006
:1024B0005A820022664BDDE90401FEF789FADDE964
:1024C0000223FEF70BFD46464746002840F03082C7
:1024D000069B069A5D1C312313700AF1010A2BE258
:1024E000F20705D5D7E90023FEF772FA013501237B
:1024F000761008376EE7022571E75746464690E7A3
:102500004E4B03EBC60353E90201099B002B48D055
:1025100002460B4600204F49FEF784FBDDE90A2303
:10252000FDF77AFECDE90A01069DDDE90201FEF71D
:10253000FFFC1190FDF7BEFF02460B46DDE90201EC
:10254000FDF76AFE119B303305F8013BDDE90A23F4
:10255000CDE90201FEF7AEFC002864D1DDE90223DB
:1025600000203849FDF758FEDDE90A23FEF7A2FCFA
:10257000002840F0B780069BEB1A9E427FF77CAFA5
:102580000022314BDDE90A01FEF722FA0022CDE9F3
:102590000A012D4BDDE90201FEF71AFACDE902012D
:1025A000C3E7DDE90A23FEF713FA069BCDE90A012A
:1025B0009D191E46DDE90201FEF7BAFC1190FDF7F8
:1025C00079FF02460B46DDE90201FDF725FE119B6E
:1025D000303306F8013BAE42CDE902014FF0000274
:1025E00025D11C4BDDE90A01FDF718FE02460B461A
:1025F000DDE90201FEF77CFC002873D1DDE90A2346
:1026000000201449FDF708FE02460B46DDE90201F1
:10261000FEF750FC00283FF42FAF15F8013C302B9B
:1026200005F1FF3201D0BA464BE01546F5E7064BFF
:10263000FEF7CEF9CDE90201BCE700BF783D000806
:10264000503D00080000F03F0000244000001C4006
:10265000000014400000E03FDDE90267069DDDE96F
:10266000042330463946FEF7DDFAFEF761FC814669
:10267000FDF720FFDDE90423FEF7AAF902460B4629
:102680003046394609F13006FDF7C6FD05F8016B05
:10269000069EAE1BB04502460B4636D1FDF7BEFD89
:1026A000DDE9042306460F46FEF722FCC8B9DDE942
:1026B000042330463946FEF7F3FB10B119F0010F41
:1026C0000FD15946204600F08CFB0023209A2B7036
:1026D0000AF101031360229B002B3FF4F1AC1D6053
:1026E000EEE4574615F8012C392A05F1FF3306D1DF
:1026F000069A9A4207D130231370013713461A788D
:1027000001321A708FE71D46ECE70022994BFEF765
:102710005FF90022002306460F46FEF7C1FB0028A2
:102720009DD0CEE7099A002A00F088801E9A012ADF
:102730006DDC109A002A66D003F23343089E4D46A2
:10274000079A01211A4420469944079200F0E9FBB8
:102750000746002D0BDD079B002B08DDAB42079AD7
:10276000A8BF2B46A9EB0309ED1AD31A0793089BC0
:10277000EBB1099B002B65D08EB13946324620461D
:1027800000F06EFC5A4601460746204600F0D2FB98
:1027900059460A90204600F024FB0A9B9B46089B62
:1027A0009A1B04D05946204600F05AFC834601216A
:1027B000204600F0B6FB0C9B0646002B00F0C981BA
:1027C0001A460146204600F04BFC1E9B012B064694
:1027D0003EDC029B002B37D1039BC3F31303002B7A
:1027E00034D1039B23F000431B0D1B052BB1079B2A
:1027F0000133079309F10109012308930C9B002B76
:1028000028D101202EE0129BC3F1360396E7089BE6
:1028100008F1FF36B342BFBF089B0896F21A0C9B23
:10282000B7BF9B189E1B0C930026B8F1000FB9BFD1
:10283000A9EB080500234D46434681E7089E099F02
:102840004D4686E7089AADE70023D6E7029BD4E71A
:1028500000230893336906EB8303186900F013FB28
:10286000C0F12000079B184410F01F0047D0C0F1B2
:102870002003042B3BDD079BC0F11C008144054471
:1028800003440793B9F1000F05DD59464A46204637
:1028900000F034FC8346079B002B05DD31461A46C9
:1028A000204600F02BFC06460D9B53B3314658469C
:1028B00000F078FC002824DA002359460A2220463A
:1028C00000F0A6FA099B0AF1FF3A8346002B00F0BC
:1028D0004781002339460A22204600F099FA049BDA
:1028E000002B07464EDC1E9B022B4BDD11E0C9D0AE
:1028F000079A1C331A4499441D441346C1E7034602
:10290000F6E7B8F1000F37DC1E9B022B34DDCDF863
:102910001080049B63B931460522204600F078FA06
:1029200001460646584600F03DFC00283FF7D0AD72
:102930001F9B069D6FEA030A4FF0000931462046AF
:1029400000F04FFA002F3FF4BCAEB9F1000F05D0F4
:10295000B94503D04946204600F043FA394620469F
:1029600000F03FFAADE600263746E1E7BA463746C3
:10297000AEE500BF00002440099BCDF81080002B7D
:1029800000F0F580002D05DD39462A46204600F08E
:10299000B5FB0746089B002B4CD07968204600F019
:1029A000ECF93A6902320546920007F10C010C304D
:1029B00000F0D8F901222946204600F09FFB069B33
:1029C0000793029B03F00103B9460893074631467B
:1029D0005846FFF79FFA4946054600F13008584629
:1029E00000F0E0FB3A4602903146204600F0F4FB4E
:1029F000C368024603BB01460990584600F0D2FB6B
:102A0000099A034611462046099300F0EAF9099B0A
:102A1000A3B91E9A92B9089A82B9B8F1390F29D090
:102A2000029B002B01DD05F13108079B5D1C83F83B
:102A3000008083E73846C2E70123E3E7029A002AD1
:102A400004DB24D11E9A12BB089A02BB002BECDDDA
:102A500059460122204600F051FB3146834600F0E2
:102A6000A1FB002803DCE0D118F0010FDDD0B8F1A4
:102A7000390FD8D1079B079A5D1C3923137015F8BD
:102A8000013C392B05F1FF324ED0013353E0079A58
:102A9000002B02F1010506DDB8F1390FEAD008F18B
:102AA0000108079BC3E7069B049A05F8018CEB1A03
:102AB000934221D0594600230A22204600F0A8F96B
:102AC000B94583464FF000034FF00A0249462046BD
:102AD00005D100F09DF981460746079577E700F09C
:102AE00097F93946814600230A22204600F090F9E2
:102AF0000746F2E74FF0000959460122204600F050
:102B0000FDFA3146834600F04DFB0028B7DC02D1C8
:102B100018F0010FB3D115F8013C302B05F1FF324D
:102B20007FF40CAF1546F6E7069B934205D1069A53
:102B30000AF1010A3123137000E715469FE7174B8E
:102B4000FFF7DBBA229B002B7FF4B5AA144BFFF7EB
:102B5000D4BA1E9B012B7FF73CAE0C9B089350E62A
:102B6000049B002B03DC1E9B022B3FF7D2AE069D7D
:102B700031465846FFF7CEF900F1300805F8018BD1
:102B8000069B049AEB1A9A42B4DD594600230A22A6
:102B9000204600F03DF98346EAE700BFB83C000854
:102BA000DC3C0008002310B50446C0E90033836014
:102BB00081814366C281C0E90433836119460822DA
:102BC0005C30FEF739FD054B6362054BA362054B94
:102BD000E362054B2462236310BD00BF3537000854
:102BE000573700088F370008B3370008014900F055
:102BF00085B800BF8D3A000870B54A1E6825554358
:102C00000E4605F1740100F0EFFB044640B10021CF
:102C1000C0E900160C30A06005F16802FEF70CFD5B
:102C2000204670BD836910B5044633BBC0E912333A
:102C30000365124B124A1B688262984204BF01234B
:102C4000836100F01FF86060204600F01BF8A06070
:102C5000204600F017F80022E06004216068FFF7CA
:102C6000A1FF01220921A068FFF79CFF0222122187
:102C7000E068FFF797FF0123A36110BDA43C0008A3
:102C8000ED2B0008F8B51B4B1E68B369074613B956
:102C90003046FFF7C7FF4836D6E90134013B03D57C
:102CA000336833B13668F7E7B4F90C506DB1683466
:102CB000F4E704213846FFF79FFF30600028F1D188
:102CC0000C233B6004462046F8BD0B4B6566C4E907
:102CD0000055A560C4E90335C4E905550822294615
:102CE00004F15C00FEF7A8FCC4E90D55C4E91255D7
:102CF000E9E700BFA43C00080100FFFF2DE9F8430D
:102D00008046894600F14804002614B93046BDE8E3
:102D1000F883D4E90175013F01D52468F5E7AB8953
:102D2000012B07D9B5F90E30013303D029464046AF
:102D3000C84706436835EEE7044B1B68186A044B26
:102D4000002808BF1846F030704700BF0800002078
:102D50006C000020024B0146186800F045BB00BF24
:102D60000800002010B5431E0A44914200D110BD56
:102D700011F8014B03F8014FF7E770B5456A0446B7
:102D80000E463DB91020FFF7E5FF6062C0E901552E
:102D90000560C560656AEB6883B1636ADB6853F8F8
:102DA0002600B8B9012101FA06F56A1D92002046F5
:102DB00000F0BEFA60B1C0E901650EE021220421F5
:102DC000204600F0B5FA636AE860DB68002BE4D1C6
:102DD000002070BD026843F826200023C0E90333B9
:102DE000F7E770B5446A06460D463CB91020FFF778
:102DF000B1FF7062C0E901440460C4603DB1736A10
:102E00006A68DB6853F82210296043F8225070BDCD
:102E10002DE9F0410D691F4606460C4601F1140CE0
:102E20000023DCF8000081B202FB01710F0C000CE2
:102E300002FB007089B2013301EB00419D424FEA71
:102E400010474CF8041BECDCD7B1A368AB4212DC92
:102E5000616830460131FFF790FF2269023204F1C8
:102E60000C01804692000C30FFF77CFF2146304673
:102E7000FFF7B7FF444604EB850301355F61256129
:102E80002046BDE8F081020C12040346B2B90304E7
:102E9000102013F07F4F04BF1B02083013F0704F57
:102EA00004BF1B01043013F0404F04BF9B000230ED
:102EB000002B06DB5B0003D5013070470020E8E7FC
:102EC00020207047036813F0070201460BD0DA0791
:102ED00023D4980749BF5B089B0801200B605CBFA7
:102EE0000B600220704798B2A8B91B0C102013F099
:102EF000FF0F04BF1B0A08301A0704BF1B09043068
:102F00009A0704BF9B080230DA0702D45B0806D098
:102F100001300B6070471046E9E700207047202021
:102F2000704710B50C460121FFF727FF01224461CD
:102F3000026110BD2DE9F74F14460A6923699A42D0
:102F4000B8BF0B468846BCBFA0461C46D8F81070D8
:102F5000D4F81090D8F80830D8F8041007EB090618
:102F6000B342B8BF0131FFF708FF00F1140505EBCC
:102F7000860E2B460022734516D304F1140208F185
:102F8000140102EB890301EB87070093009B019278
:102F900093420CD8002E03DD5EF8043D002B5DD07B
:102FA000066103B0BDE8F08F43F8042BE3E7B2F805
:102FB00000B0BBF1000F23D08946AC464FF00008AB
:102FC00059F8044BDCF800A0A3B21FFA8AFA0BFBF5
:102FD00003A34FEA144ADCF8004043444FEA144884
:102FE0000BFB0A8404EB1344E2469BB243EA04431E
:102FF0004F454FEA14484AF8043B2BD8CCF80480DC
:10300000019BB3F802A00432BAF1000F20D02B6864
:103010008946A8464FF0000BB9F800C0B8F8024046
:103020000AFB0C445C44C4469BB243EA04434CF89C
:10303000043B59F8043BB8F804B01B0C0AFB03B37B
:1030400003EB14434F454FEA134B05D8C8F804303F
:1030500004359BE7D446B3E7E046DDE7013E99E758
:103060002DE9F843154612F0030206460F4607D035
:10307000013A214C002354F82220FFF7C9FE0746ED
:10308000AD1035D0746A3CB91020FFF763FE706252
:10309000C0E901440460C460D6F82480D8F8084030
:1030A0004CB940F271213046FFF73BFF0023C8F8CE
:1030B0000800044603604FF00008EB070AD53946C4
:1030C00022463046FFF736FF394681463046FFF745
:1030D00088FE4F466D100BD0206838B92246214635
:1030E0003046FFF727FF2060C0F800800446E4E781
:1030F0003846BDE8F88300BF403E00082DE9F047A0
:103100000C464FEA621A236949680AEB0309A3686F
:103110000746164609F10105AB4232DB3846FFF798
:103120002CFE0023804600F114011A4653452BDB88
:1031300020692AEAEA7A04F1140316F01F0201EB6F
:103140008A0103EB800C25D0C2F1200E00201E68FE
:103150008A46964030434AF8040B53F8040B9C45CA
:1031600020FA0EF014D8486008B109F10205013DBB
:103170003846C8F810502146FFF733FE4046BDE8F8
:10318000F08701315B00C7E741F823200133CDE729
:103190005146DCE7043953F8042B41F8042F9C45D1
:1031A000F9D8E4E703690A699B1A30B50CD192009B
:1031B000143014318418114454F8045D51F8042D6E
:1031C000954203D005D30123184630BDA042F3D366
:1031D000FAE74FF0FF33F7E72DE9F0470D460746D2
:1031E000114628461446FFF7DDFF061E08D131467A
:1031F0003846FFF7C2FD0123C0E90436BDE8F08779
:10320000A4BF23462C4638466168A6BF1D4600264B
:103210000126FFF7B2FD2B69C660266905F1140986
:1032200004F1140202EB860709EB830800F1140590
:103230004FF0000E52F804AB59F8044B1EFA8AF115
:10324000A3B2C91A230CC3EB1A4303EB214389B27F
:103250004FEA234EC84541EA0343944645F8043BF0
:10326000E8D8BC4504D355F8043D83B10661C5E7F1
:103270005CF8041B1EFA81F31A1402EB11429BB294
:1032800043EA02434FEA224E45F8043BE9E7013E98
:10329000E9E72DE9F34101211C469046DDE9086587
:1032A000FFF76BFDC4F31302C4F30A54074634BBA3
:1032B0000192B8F1000227D002A840F8082DFFF7CC
:1032C00001FE0099F0B1019AC0F1200302FA03F364
:1032D0000B43C2407B610192019BBB61002B14BF79
:1032E000022101213961C4B1A4F2334404443460A1
:1032F000C0F135002860384602B0BDE8F08142F4E4
:103300008012D5E77961E7E701A8FFF7DBFD019BB4
:103310007B61012139612030E5E707EB8103A0F2F1
:10332000324030601869FFF7AEFDC0EB4110E1E7B5
:1033300038B502FB01F4214600F056F8054618B1F5
:1033400022460021FEF778F9284638BD38B50546F3
:10335000002945D051F8043C0C1F002BB8BFE418DD
:1033600000F046FC1F4A1368104633B963601460CE
:103370002846BDE8384000F03CBCA3420CD9216887
:103380006218934204BF1A685B68636004BF5218F6
:1033900022600460ECE713465A680AB1A242FAD9E7
:1033A00019685818A0420BD120680144581882426D
:1033B0001960DDD1106852685A6001441960D7E77E
:1033C00002D90C232B60D3E7206821188A4204BF5E
:1033D00011685268626004BF091821605C60C7E729
:1033E00038BD00BFF801002070B5CD1C25F00305E5
:1033F00008350C2D38BF0C25002D064601DBA942EF
:1034000003D90C233360002070BD00F0F1FB214A8A
:103410001468214691B9204C23681BB9304600F04E
:1034200079F920602946304600F074F9431C24D114
:103430000C233360304600F0DCFBE4E70B685B1BD9
:1034400018D40B2B0FD90B60CD50CC18304600F0A0
:10345000D0FB04F10B00231D20F00700C31AD3D0CA
:103460005A42E250D0E78C424B6816BF636013604B
:103470000C46EBE70C464968CCE7C41C24F0030477
:10348000A04205D0211A304600F044F90130CFD0D7
:103490002560DBE7F8010020FC0100209368013B78
:1034A000002B10B4936007DA9469A34201DB0A2968
:1034B00002D110BC00F082B91368581C106019705A
:1034C000084610BC7047F8B506460F461446D51896
:1034D000AC4201D1002007E03A4614F8011B304607
:1034E000FFF7DCFF431CF3D1F8BD00002DE9F04FDE
:1034F0009DB00C4617460393064618B183690BB975
:10350000FFF790FB7B4B9C4257D17468A389180747
:103510005DD52369002B5AD00023099320238DF811
:10352000293030238DF82A304FF0010BB84645463C
:1035300015F8013B0BB1252B54D1B8EB070A0BD082
:1035400053463A4621463046FFF7BDFF013000F0B2
:10355000C280099B5344099398F80030002B00F077
:10356000BA8000234FF0FF32CDE90523049307937F
:103570008DF853301A93A846052218F8011B5E48AF
:10358000FDF7D6F9049B78BBD90644BF20228DF8FD
:1035900053201A0744BF2B228DF853202A782A2A59
:1035A0002AD0079AA84600200A25414611F8013B77
:1035B000303B092B69D960B324E0504B9C4201D1C8
:1035C000B468A3E74E4B9C4208BFF4689EE72146CF
:1035D000304600F057F900289ED04FF0FF301DB064
:1035E000BDE8F08FA846A2E7434A801A0BFA00F024
:1035F000184304904546BEE7039A111D12680391D3
:10360000002A01DB079204E0524243F002030792D2
:10361000049398F800302E2B0ED198F801302A2B05
:1036200038D1039B1A1D1B680392002BB8BF4FF0C3
:10363000FF3308F102080593324D98F80010032279
:103640002846FDF775F940B14023401B03FA00F00E
:10365000049B034308F10108049398F800102A48DA
:103660008DF82810062208F10107FDF761F90028FE
:1036700037D0264B1BBB039B073323F007030833CC
:103680000393099B4B44099350E705FB0232012049
:1036900088468AE7002308F10108059319460A25A0
:1036A000404610F8012B303A092A03D9002BC3D029
:1036B0000591C1E705FB012101238046F0E703AB3B
:1036C00000932246124B04A93046FEF74DF8B0F1A4
:1036D000FF3F8146D5D1A3895B063FF57EAF0998B0
:1036E0007DE703AB00932246094B04A93046FEF761
:1036F000E7FAECE70C3D00084C3E00082C3D0008C2
:10370000EC3C0008523E0008563E000869170008CD
:10371000C734000838B5064C002305460846236028
:10372000FDF7C0FE431C02D1236803B12B6038BDF6
:103730000002002010B50C46B1F90E1000F05AFA44
:103740000028ABBF636DA3891B1823F48053ACBF63
:103750006365A38110BD2DE9F0411F468B89DB0510
:1037600005460C46164605D502230022B1F90E1077
:1037700000F0B6F9A389B4F90E1023F48053A381A5
:1037800032463B462846BDE8F04100F069B810B526
:103790000C46B1F90E1000F0A3F9431CA38915BF24
:1037A000606523F4805343F48053A38118BFA38141
:1037B00010BDB1F90E1000F0D3B80000F8B50E46F8
:1037C0001446054618B183690BB9FFF72BFA214B54
:1037D0009C422AD16C68A369A360A3891A072ED5DD
:1037E000236963B323692068C01A6369F6B2834210
:1037F000374604DC2146284600F048F928BBA36878
:10380000013BA36023685A1C22601E70636901306B
:10381000834204D0A389DB0719D50A2E17D121468C
:10382000284600F033F990B10FE00B4B9C4201D1D8
:10383000AC68D0E7094B9C4208BFEC68CBE7214657
:10384000284600F01FF80028CCD04FF0FF3738464C
:10385000F8BD00BF0C3D00082C3D0008EC3C000802
:1038600038B5074C054608461146002222601A4624
:10387000FDF76CFE431C02D1236803B12B6038BDF9
:1038800000020020324B70B51D6806460C4625B17B
:10389000AB6913B92846FFF7C5F92E4B9C420FD1EF
:1038A0006C68B4F90C309AB215072CD4D00611D438
:1038B0000922326043F04003A3814FF0FF303EE025
:1038C000254B9C4201D1AC68EBE7244B9C4208BFDE
:1038D000EC68E6E7510712D5616B41B104F144038E
:1038E000994202D03046FFF731FD00236363A3897C
:1038F00023F02403A3810023636023692360A38949
:1039000043F00803A38123694BB9A38903F420730F
:10391000B3F5007F03D02146304600F017F9A289A5
:1039200012F001030CD00023A36063695B42A36122
:10393000236953B9B4F90C3013F08000BAD170BDCB
:10394000920758BF6369A360F2E70020F7E700BF62
:10395000080000200C3D00082C3D0008EC3C00084D
:1039600038B5064C0023054608462360FDF7CCFD1C
:10397000431C02D1236803B12B6038BD0002002034
:103980008A892DE9F041054610070C4658D44B684A
:10399000002B05DC0B6C002B02DC0020BDE8F08165
:1039A000E66A002EF9D0002312F480522F68216AB3
:1039B0002B6032D0606DA3895A0705D56368C01AA1
:1039C000636B0BB1236CC01A00230246E66A216ABE
:1039D0002846B047431CA38906D129681D2948D829
:1039E000294ACA40D60744D500226260D904226918
:1039F000226004D5421C01D12B6803B96065616B5C
:103A00002F600029C9D004F14403994202D028460E
:103A1000FFF79CFC00206063C0E701232846B04705
:103A2000411CC8D12B68002BC5D01D2B01D0162BF3
:103A300001D12F60B1E7A38943F04003A381ADE733
:103A40000F69002FA9D093070E6808BF4B690F605C
:103A500018BF0023A6EB07088B60B8F1000F9CDDB0
:103A600043463A46216AA66A2846B047002806DC43
:103A7000A38943F04003A3814FF0FF308EE7074452
:103A8000A8EB0008E9E700BF0100402038B50B694A
:103A900005460C46DBB118B183690BB9FFF7C2F8D4
:103AA0000C4B9C4209D16C68B4F90C307BB12146B7
:103AB0002846BDE83840FFF763BF074B9C4201D161
:103AC000AC68F1E7054B9C4208BFEC68ECE70020CE
:103AD00038BD00BF0C3D00082C3D0008EC3C000840
:103AE00038B5074C054608461146002222601A46A2
:103AF000FDF71FFD431C02D1236803B12B6038BDC5
:103B00000002002070B50E46B1F90E10002996B0E3
:103B100014461D4607DA00232B60B3891A0610D419
:103B20004FF480630EE06A4600F084F80028F2DB70
:103B3000019A02F47042A2F500535A425A412A6097
:103B4000EEE740230020236016B070BD8B8973B56B
:103B50009D0706460C4607D504F147032360236101
:103B60000123636102B070BD01AB6A46FFF7CAFF73
:103B7000009905463046FFF737FC48B9B4F90C30D8
:103B80009A05EFD423F0030343F00203A381E3E794
:103B90000D4BB362A389206043F08003A381009B97
:103BA0006361019B20615BB1B4F90E10304600F0F7
:103BB00053F828B1A38923F0030343F00103A38141
:103BC000A3891D43A581CDE7ED2B000882B001B983
:103BD00001A942B14BB113780B601278101C18BFC9
:103BE000012002B070471046FBE76FF00100F8E7D4
:103BF0007047704738B5074C054608461146002205
:103C000022601A46FDF7BCFC431C02D1236803B1B5
:103C10002B6038BD0002002049B1FF2A85BF8A23EE
:103C200003600A704FF0FF3098BF012070470846CC
:103C30007047000038B5074C00230546084611467A
:103C40002360FDF71AFC431C02D1236803B12B60EB
:103C500038BD00BF0002002038B5064C00230546E1
:103C600008462360FDF75BFC431C02D1236803B1C7
:103C70002B6038BD00020020F8B500BFF8BC08BCBE
:103C80009E467047F8B500BFF8BC08BC9E4670471A
:103C90004C45443A2025642C2025302E32660D0AEE
:103CA000000000000C000020494E4600696E6600CE
:103CB0004E414E006E616E0030003031323334358B
:103CC0003637383941424344454600303132333487
:103CD000353637383961626364656600496E6669F6
:103CE0006E697479004E614E000000000000000013
:103CF00000000000000000000000000000000000C4
:103D000000000000000000000000000000000000B3
:103D100000000000000000000000000000000000A3
:103D20000000000000000000000000000000000093
:103D30000000000000000000000000000000000083
:103D40000000000000000000000000000000000073
:103D50000080E03779C34143176E05B5B5B8934687
:103D6000F5F93FE9034F384D321D30F94877825A53
:103D70003CBF737FDD4F1575000000000000F03F71
:103D80000000000000002440000000000000594036
:103D90000000000000408F40000000000088C34089
:103DA00000000000006AF8400000000080842E41FE
:103DB00000000000D01263410000000084D797414A
:103DC0000000000065CDCD41000000205FA0024250
:103DD000000000E876483742000000A2941A6D42C5
:103DE000000040E59C30A2420000901EC4BCD642B8
:103DF00000003426F56B0C430080E03779C3414363
:103E000000A0D8855734764300C84E676DC1AB43D8
:103E1000003D9160E458E143408CB5781DAF1544F6
:103E200050EFE2D6E41A4B4492D54D06CFF08044D1
:103E3000F64AE1C7022DB544B49DD9794378EA44E6
:103E400005000000190000007D000000232D302B2C
:103E50002000686C4C00656667454647004300508B
:103E60004F534958002E00002020202020202020E1
:103E7000202828282828202020202020202020201A
:103E8000202020202020202088101010101010103A
:103E90001010101010101010040404040404040482
:103EA0000404101010101010104141414141410113
:103EB00001010101010101010101010101010101F2
:103EC0000101011010101010104242424242420201
:103ED00002020202020202020202020202020202C2
:103EE000020202101010102000000000000000006C
:103EF00000000000000000000000000000000000C2
:103F000000000000000000000000000000000000B1
:103F100000000000000000000000000000000000A1
:103F20000000000000000000000000000000000091
:103F30000000000000000000000000000000000081
:103F40000000000000000000000000000000000071
:103F50000000000000000000000000000000000061
:083F6000000000000000000059
:043F6800F501000857
:043F6C00D101000877
:103F7000EFBE0000010000000C0000200000000067
:103F80000C3D00082C3D0008EC3C0008000000003F
:103F90000000000000000000000000000000000021
:103FA0000000000000000000000000000000000011
:103FB0000000000000000000000000000000000001
:103FC00000000000000000000000000000000000F1
:103FD000000000000000000000000000430000009E
:103FE00000000000000000000000000000000000D1
:103FF000000000000000000000000000430000007E
:1040000000000000000000000000000000000000B0
:10401000000000000000000000000000430000005D
:104020000000000000000000000000000000000090
:10403000000000000000000000000000430000003D
:104040000000000000000000000000000000000070
:10405000000000000000000000000000430000001D
:104060000000000000000000000000000000000050
:1040700000000000000000000000000043000000FD
:104080000000000000000000000000000000000030
:1040900000000000000000000000000043000000DD
:1040A0000000000000000000000000000000000010
:1040B000000000000000000000000000193C0008A3
:1040C000CD3B000800000000673E0008653E000888
:1040D000513E0008513E0008513E0008513E000884
:1040E000513E0008513E0008513E0008513E000874
:1040F000513E0008FFFFFFFFFFFFFFFFFFFFFFFF35
:10410000FFFF000001004153434949000000000047
:10411000000000000000000000000000000000009F
:104120000000000000004153434949000000000026
:10413000000000000000000000000000000000007F
:08414000000000000000000077
:040000050800159D3D
:00000001FF
